:1000000014C02EC02DC02CC02BC02AC029C028C0AF
:1000100027C026C025C024C023C022C021C020C0C4
:100020001FC01EC01DC01CC01BC011241FBECFE5B9
:10003000D1E0DEBFCDBF10E0A0E6B0E0E0E9F5E042
:1000400002C005900D92AA37B107D9F720E0AAE7C0
:10005000B0E001C01D92AE3AB207E1F7D0D196C22E
:10006000CFCF82E090E028E034E042E051E018BADF
:100070006FE37DE0E3E061507040E040E1F700C0F5
:10008000000028BB6FE37DE0E3E061507040E0409A
:10009000E1F700C0000018BA6FE37DE0E3E06150D3
:1000A0007040E040E1F700C0000038BB6FE37DE046
:1000B000E3E061507040E040E1F700C0000018BA92
:1000C0006FE37DE0E3E061507040E040E1F700C0A5
:1000D000000048BB6FE37DE0E3E061507040E0402A
:1000E000E1F700C0000018BA6FE37DE0E3E0615083
:1000F0007040E040E1F700C0000058BB6FE37DE0D6
:10010000E3E061507040E040E1F700C0000018BA41
:100110006FE37DE0E3E061507040E040E1F700C054
:10012000000058BB6FE37DE0E3E061507040E040C9
:10013000E1F700C0000018BA6FE37DE0E3E0615032
:100140007040E040E1F700C0000048BB6FE37DE095
:10015000E3E061507040E040E1F700C0000018BAF1
:100160006FE37DE0E3E061507040E040E1F700C004
:10017000000038BB6FE37DE0E3E061507040E04099
:10018000E1F700C0000018BA6FE37DE0E3E06150E2
:100190007040E040E1F700C0000028BB6FE37DE065
:1001A000E3E061507040E040E1F700C000000197DB
:1001B00009F05DCF08958AE090E02FE018BA3FE3A0
:1001C0004DE053E0315040405040E1F700C00000A6
:1001D00028BB3FE34DE053E0315040405040E1F751
:1001E00000C00000019751F708951F920F920FB6BB
:1001F0000F9211248F939F938091A2009091A3005E
:10020000892B31F481E090E09093A3008093A200C9
:100210008091A2009091A3008130910551F49093B8
:10022000A7008093A60082E090E09093A3008093C3
:10023000A2009F918F910F900FBE0F901F90189565
:100240001F920F920FB60F9211248F939F9380915C
:10025000A2009091A300892B31F481E090E090936B
:10026000A3008093A2008091A2009091A30081300E
:10027000910551F49093A9008093A80082E090E04A
:100280009093A3008093A2009F918F910F900FBE37
:100290000F901F9018951F920F920FB60F92112476
:1002A0008F939F938091A2009091A300892B31F4AA
:1002B00081E090E09093A3008093A2008091A2003F
:1002C0009091A3008130910551F49093AB008093FD
:1002D000AA0082E090E09093A3008093A2009F91F7
:1002E0008F910F900FBE0F901F9018951F920F9235
:1002F0000FB60F9211248F939F938091A20090913B
:10030000A300892B31F481E090E09093A3008093C7
:10031000A2008091A2009091A3008130910551F438
:100320009093AD008093AC0082E090E09093A300A6
:100330008093A2009F918F910F900FBE0F901F90FE
:10034000189581E088BB2FE38DE093E02150804039
:100350009040E1F700C0000018BA089582E088BB21
:100360002FE38DE093E0215080409040E1F700C002
:10037000000018BA089584E088BB2FE38DE093E075
:10038000215080409040E1F700C0000018BA089565
:1003900088E088BB2FE38DE093E0215080409040BF
:1003A000E1F700C0000018BA08950F931F93CF9390
:1003B000DF938C01C0E0D0E08091780090917900CB
:1003C000C817D907BCF4F801819191918F0100976A
:1003D00011F4B7DF0DC08130910511F4BFDF08C003
:1003E0008230910511F4C7DF03C0039709F4D0DF11
:1003F0002196E2CFDF91CF911F910F9108958FEF5A
:1004000087BB8BBF2E9A88248394912C9FE0B92EB2
:1004100028DE80919E0090919F002091AC00309149
:10042000AD00892B89F591E02130310509F090E08C
:1004300081E02091AA003091AB002130310509F014
:1004400080E0982B81E02091A8003091A900213014
:10045000310509F080E0892B39F48091A600909154
:10046000A700019709F041C0FCDD90929F008092A7
:100470009E00B8BA2FE784E89EE12150804090406A
:10048000E1F700C0000031C0232B09F05ADF809152
:10049000AA009091AB00892B09F060DF8091A80041
:1004A0009091A900892B09F066DF8091A6009091B8
:1004B000A700892B09F06CDF80E690E076DF809161
:1004C000980090919900E0E6F0E081939193019675
:1004D0008430910514F080E090E0C0E0E836FC073D
:1004E000A1F79093990080939800E0919600F09185
:1004F00097008091780090917900E817F90711F042
:100500005ADE86CF40919C0050919D0060919400EE
:1005100070919500A0E6B0E00AE710E021E030E03D
:1005200080E090E08E179F078CF4CD90DD90E8017D
:10053000E990F9908E01CE14DF0431F020E030E034
:1005400041E050E061E070E00196ECCF70939500DF
:100550006093940050939D0040939C0030938F00D3
:1005600020938E00809194009091950020919C00A2
:1005700030919D002130310519F681309105E9F760
:10058000109295001092940016DEECCFF894FFCFF5
:100590000100010000000100000000000000000058
:0A05A000000000007A0006000400CD
:00000001FF
