:020000040000FA
:10000000000002287E30AE000130AF0080300000DA
:10001000000036210000000083120000BD002F0800
:10002000BC008030BE000130BF00831200003C08DD
:10003000C0003D08C100FF30BC07031CBD034108E0
:10004000400403199A2804303E07C000C101C10DC5
:100050003F08C1074008AE004108AF0080300000F3
:10006000000036210000000083120000C3002F08AA
:10007000C2003E08AE003F08AF0080300000000024
:1000800036210000000083120000C500C1002F08C7
:10009000C000C40002303E07C000C101C10D3F08CE
:1000A000C1074008AE004108AF00803000000000EA
:1000B00036210000000083120000C100C7002F0895
:1000C000C600C000831200004208C6004308C700F3
:1000D000FF30C207031CC3034708460403199328D3
:1000E0004408AE004508AF00803000000000232126
:1000F0000000000083120000C600400883120313B2
:10010000840083138312000041188317460883126A
:100110000313800083120000C40A0319C50AC00A31
:100120000319C10A6228063083120000BE070318B3
:10013000BF0A1528000000009E28080083169F01B2
:100140002030850083128501B001B101B00A031986
:10015000B10A3008063A031DB3283108003A031DDE
:10016000B328B001B10183120508203A031DA62867
:100170003008B2003108B3003008013A031DCC2822
:100180003108003A031DCC2801308500FA30AF0059
:1001900000305721831285013208023A031DDD2801
:1001A0003308003A031DDD28023083128500FA303F
:1001B000AF0000305721831285013208033A031D36
:1001C000EE283308003A031DEE2804308312850020
:1001D000FA30AF0000305721831285013208043A0B
:1001E000031DFF283308003A031DFF280530831242
:1001F0008500FA30AF0000305721831285013208A4
:10020000053A031D10293308003A031D1029063052
:1002100083128500FA30AF00003057218312850128
:100220003208063A031DA6283308003A031DA62803
:10023000073083128500FA30AF0000305721831257
:100240008501A6280800003A03192A29803A0319D3
:10025000312900342E08840083132F1883170008D7
:1002600008002F088A002E0882000800003A0319AF
:100270003E29803A03194829AF0100342E08840032
:1002800083132F1883170008AF00840A00080800A2
:10029000000000003121AD00AE0FAF03AF0A000037
:1002A00000003121AC002D08AF002C080800B5007B
:1002B0002F08B400B601B70135083702031D6229C3
:1002C0003408360203187D29FB30B8000430B90029
:1002D000FF303807BA00FF30BB0039080318390F68
:1002E000BB073A08B8003B08B9003B083A04031DB5
:1002F0006829B60A0319B70A5C29080001340034DA
:0E0300008634013448340034013400340034B3
:02400E00D43F9D
:00000001FF
