:1000000014C05CC06FC02CC02BC02AC02AC028C03E
:1000100027C026C025C07AC023C022C021C020C06E
:100020001FC01EC01DC09DC01BC011241FBECFE538
:10003000D1E0DEBFCDBF10E0A0E6B0E0EEE2F6E03A
:1000400002C005900D92AC37B107D9F720E0ACE7BC
:10005000B0E001C01D92AE3AB207E1F754D1E5C25B
:10006000CFCF1F920F920FB60F9211242F933F9371
:100070008F939F93809194009091950020917400AC
:10008000309175008217930759F4109295001092E1
:10009000940081E090E0909393008093920005C0DB
:1000A000019690939500809394009F918F913F913A
:1000B0002F910F900FBE0F901F9018951F920F92C7
:1000C0000FB60F9211248F939F9381E090E090934D
:1000D000A9008093A8009F918F910F900FBE0F9061
:1000E0001F9018951F920F920FB60F9211248F93A5
:1000F0009F9381E090E09093A7008093A6009F914A
:100100008F910F900FBE0F901F9018951F920F9216
:100110000FB60F9211248F939F938091A20090911C
:10012000A300892B31F481E090E09093A3008093A9
:10013000A2008091A2009091A3008130910551F41A
:100140009093AB008093AA0082E090E09093A3008C
:100150008093A2009F918F910F900FBE0F901F90E0
:1001600018951F920F920FB60F9211248F939F93A1
:100170008091A4009091A500892B31F481E090E05A
:100180009093A5008093A4008091A4009091A50075
:100190008130910551F49093A9008093A80082E0EA
:1001A00090E09093A5008093A4009F918F910F9071
:1001B0000FBE0F901F901895809192009091930020
:1001C000019759F482B3811103C083E382BB01C05C
:1001D00012BA109293001092920080919200909126
:1001E0009300019759F482B3811103C083E382BB6A
:1001F00001C012BA10929300109292008091920066
:1002000090919300019759F482B3811103C083E365
:1002100082BB01C012BA109293001092920008950E
:10022000CBCF8091920090919300019759F482B3C3
:10023000811103C081E082BB01C012BA1092930009
:1002400010929200089580919200909193000197EE
:1002500059F482B3811103C080E182BB01C012BA9C
:1002600010929300109292000895809192009091C4
:100270009300019759F482B3811103C082E082BBDD
:1002800001C012BA109293001092920008958091CA
:10029000920090919300019759F482B3811103C0A9
:1002A00080E282BB01C012BA1092930010929200B9
:1002B00008950F931F93CF93DF938C01C0E0D0E09C
:1002C0008091760090917700C817D907BCF4F801A7
:1002D000819191918F01009711F4A3DF0DC08130BE
:1002E000910511F4C2DF08C08230910511F4ABDF33
:1002F00003C0039709F4CBDF2196E2CFDF91CF91C2
:100300001F910F91089588EE8BBF83E381BB17BACD
:100310001ABA87E080BD789473E3B72EE2E08E2EA0
:10032000912C4ADF10927B0010927A0080E690E0D8
:10033000C0DF0091AC001091AD00A091AA00B09177
:10034000AB00E091A800F091A9006091A600709127
:10035000A70040917A0050917B0080919A00909183
:100360009B0041305105F1F48430910514F401965D
:1003700002C080E090E031E00130110509F030E08A
:1003800021E0A130B10509F020E0322B21E0E1307D
:10039000F10509F020E0232B09F02CC16130710533
:1003A00001F728C190939B0080939A001093AD00B1
:1003B0000093AC00B093AB00A093AA00F093A90007
:1003C000E093A8007093A7006093A60050937B0071
:1003D00040937A00E0919800F09199008091760026
:1003E00090917700E817F90709F07AC040919E00D4
:1003F00050919F006091960070919700A0E6B0E048
:100400000CE710E021E030E080E090E08E179F07DD
:100410008CF4CD90DD90E801E990F9908E01CE1436
:10042000DF0431F020E030E041E050E061E070E0D6
:100430000196ECCF709397006093960050939F00C5
:1004400040939E003093910020939000209196005D
:100450003091970080919E0090919F00019749F400
:1004600021303105E9F71092970010929600A4DE32
:10047000EDCF20919000309191002130310581F530
:100480008091760090917700FC01EE0FFF1FE05AFB
:10049000FF4F40919C0050919D00518340833093C9
:1004A0007B0020937A0001969093770080937600EA
:1004B0001092990010929800109291001092900062
:1004C0008091920090919300019751F482B3811131
:1004D00002C0B2BA01C012BA1092930010929200F8
:1004E00080919C0090919D008330910534F4019699
:1004F00090939D0080939C0004C010929D001092E8
:100500009C008091AC009091AD000197A9F41092ED
:10051000AD001092AC0085DE80919800909199001A
:10052000FC01EE0FFF1FE458FF4F1182108201966D
:1005300090939900809398000091AA001091AB00CD
:1005400001301105A9F41092AB001092AA008DDEC3
:100550008091980090919900FC01EE0FFF1FE458E4
:10056000FF4F118300830196909399008093980028
:100570008091A8009091A9000197C9F41092A90058
:100580001092A80060DE8091980090919900FC0183
:10059000EE0FFF1FE458FF4F9182808201969093E7
:1005A0009900809398001092A5001092A400809169
:1005B000A6009091A700019709F0B3CE1092A70072
:1005C0001092A60064DE8091980090919900FC0141
:1005D000EE0FFF1FE458FF4F23E030E0318320830C
:1005E000019690939900809398001092A300109226
:1005F000A20092CE20E630E0E901899399939E0112
:1006000001968430910514F080E090E000E010E065
:10061000A0E0B0E0E0E0F0E060E070E040E050E05A
:0E062000D0E028363D0741F79CCEF894FFCF7E
:10062E0001000100000001000000000000000000B9
:0C063E00000000007A000400060001002B
:00000001FF
